:020000040800F2
:10000000200E00200D02000829040008E703000864
:1000100025040008C7020008B3140008000000000F
:10002000000000000000000000000000390C000883
:10003000CB02000800000000B10400084D0D0008CC
:1000400027020008270200082702000827020008EC
:1000500027020008270200082702000827020008DC
:1000600027020008270200082702000827020008CC
:1000700027020008270200082702000827020008BC
:1000800027020008270200082702000827020008AC
:10009000270200082702000827020008270200089C
:1000A000270200082702000827020008270200088C
:1000B0002702000827020008B10D000827020008E7
:1000C000270200082702000827020008270200086C
:1000D00027020008C110000849110008D1110008CA
:1000E000270200082702000827020008270200084C
:1000F000270200082702000827020008270200083C
:10010000270200082702000827020008270200082B
:1001100027020008391000082702000827020008FB
:10012000270200082702000827020008270200080B
:1001300000F002F800F05AF80AA090E8000C82449F
:100140008344AAF10107DA4501D100F04FF8AFF27C
:10015000090EBAE80F0013F0010F18BFFB1A43F0A5
:1001600001031847501D0000701D00000A444FF0A5
:10017000000C10F8013B13F0070408BF10F8014B06
:100180001D1108BF10F8015B641E05D010F8016B4B
:10019000641E01F8016BF9D113F0080F1EBF10F8AF
:1001A000014BAD1C0C1B09D16D1E58BF01F801CBD2
:1001B000FAD505E014F8016B01F8016B6D1EF9D555
:1001C0009142D6D37047000000230024002500266A
:1001D000103A28BF78C1FBD8520728BF30C148BFAA
:1001E0000B6070471FB51FBD10B510BD00F031F892
:1001F0001146FFF7F7FF01F0A7F900F04FF803B43D
:10020000FFF7F2FF03BC00F057F8000009488047F1
:1002100009480047FEE7FEE7FEE7FEE7FEE7FEE7E8
:10022000FEE7FEE7FEE7FEE704480549054A064B00
:1002300070470000510D000831010008200800201F
:10024000200E0020200A0020200A0020704770475E
:100250007047754600F02CF8AE46050069465346D7
:1002600020F00700854618B020B5FFF7DDFFBDE898
:1002700020404FF000064FF000074FF000084FF00D
:10028000000B21F00701AC46ACE8C009ACE8C0099E
:10029000ACE8C009ACE8C0098D46704710B504460B
:1002A000AFF300802046BDE81040FFF7A8BF000074
:1002B00000487047C007002001491820ABBEFEE788
:1002C00026000200704700BFFEE770472DE9F041AD
:1002D000024600250026002000230024002791F874
:1002E00003C00CF00F0591F803C00CF0100CBCF12A
:1002F000000F03D091F802C04CEA050591F800C048
:10030000BCF1000F31D0146800202BE04FF0010C3D
:100310000CFA00F3B1F800C00CEA03069E4220D1AB
:1003200083004FF00F0C0CFA03F7BC4305FA03FCF3
:100330004CEA040491F803C0BCF1280F06D14FF039
:10034000010C0CFA00FCC2F814C00AE091F803C0DA
:10035000BCF1480F05D14FF0010C0CFA00FCC2F8BB
:1003600010C0401C0828D1D31460B1F800C0BCF103
:10037000FF0F34DD546800202EE000F1080C4FF030
:10038000010808FA0CF3B1F800C00CEA03069E421B
:1003900021D183004FF00F0C0CFA03F7BC4305FA90
:1003A00003FC4CEA040491F803C0BCF1280F05D10A
:1003B00000F1080C08FA0CF8C2F8148091F803C098
:1003C000BCF1480F07D100F1080C4FF0010808FA02
:1003D0000CF8C2F81080401C0828CED35460BDE849
:1003E000F0814161704700BFFEE7000008B50121C0
:1003F000482000F07FF84FF4FF50ADF800001020C7
:100400008DF8030003208DF8020069460448FFF7C9
:100410005DFF4FF4FF510248FFF7E3FF08BD000006
:10042000000C014000BFFEE77047000070B50021DE
:1004300000230F22C47804B3154C246804F4E0644C
:10044000C4F5E064210AC1F10403CA40447804FA07
:1004500003F184781440214309010E4C0678A1551C
:10046000047804F01F050124AC4005786D11AD003F
:1004700005F1E025C5F8004109E0047804F01F0506
:100480000124AC40044D0678761145F8264070BD35
:100490000CED00E000E400E080E100E002490143EF
:1004A000024A1160704700000000FA050CED00E000
:1004B0007047000029B1064AD2690243044BDA6151
:1004C00004E0034AD2698243014BDA6170470000BD
:1004D0000010024029B1064A12690243044B1A6116
:1004E00004E0034A12698243014B1A61704700001D
:1004F0000010024029B1064A92690243044B9A61F6
:1005000004E0034A92698243014B9A6170470000FC
:100510000010024029B1064AD2680243044BDA6057
:1005200004E0034AD2688243014BDA60704700005E
:100530000010024030B500210022002400232D4D80
:100540006D6805F00C0121B1042905D0082923D1DB
:1005500005E0294D056022E0274D05601FE0254D8F
:100560006D6805F47012234D6D6805F48034022522
:1005700005EB92421CB9214D554305600BE01D4D22
:100580006D6805F400351DB11C4D5543056002E052
:10059000194D5543056002E0174D056000BF00BFCF
:1005A000144D6D6805F0F0010909154D6B5C056887
:1005B000DD4045600F4D6D6805F4E061090A104D9E
:1005C0006B5C4568DD4085600A4D6D6805F46051DF
:1005D000C90A0B4D6B5C4568DD40C560054D6D6813
:1005E00005F44041890B074D6B5CC568B5FBF3F51D
:1005F000056130BD0010024000127A0000093D0084
:10060000420400205204002010B5DD480078DD4986
:100610000978884205D1DC480078DC4909788842AD
:100620007ED0DB480078012835D1DA4800780128EF
:1006300031D10020D849088012E0D848D64A128823
:10064000815CD74800F031FF00BF4021D44800F062
:100650005FFE0128F9D1D0480088401CCE490880AF
:10066000CD4800887128E8DB0020CE490860CE49DB
:10067000C1F89801CB49083108600120091D0860C4
:100680000020091D0860091D08600120091D08607F
:10069000C549C1F8B001BE48007801281ED1BD4847
:1006A000007802281AD10020BB49088012E0BF4818
:1006B000B94A1288815CBA4800F0F7FE00BF4021B9
:1006C000B74800F025FE0128F9D1B3480088401C46
:1006D000B1490880B04800887128E8DBAC48007850
:1006E000012837D1AB480078032833D10020AA492C
:1006F000088012E0AE48A84A1288815CA84800F041
:10070000D4FE00BF4021A64800F002FE0128F9D126
:10071000A1480088401CA04908809F48008800E04C
:100720002CE17128E6DB00209E4908609E49C1F853
:1007300098019C49083108600120091D08600020CB
:10074000091D0860091D08600120091D08609649FF
:10075000C1F8B0018E48007802281ED18D4800787B
:1007600001281AD100208C49088012E091488A4A59
:100770001288815C8A4800F098FE00BF40218848BA
:1007800000F0C6FD0128F9D183480088401C824949
:100790000880814800887128E8DB7D4800780228BD
:1007A00035D17C480078022831D100207A49088070
:1007B00012E08148784A1288815C794800F075FE21
:1007C00000BF4021764800F0A3FD0128F9D172480E
:1007D0000088401C704908806F4800887128E8DB59
:1007E0000020704908607049C1F898016D490831CE
:1007F0000860091D08600120091D08600020091D0E
:100800000860091D086001206749C1F8B00160480F
:100810000078022836D15F480078032832D10020C2
:100820005D49088012E065485B4A1288815C5C483B
:1008300000F03BFE00BF4021594800F069FD01284F
:10084000F9D155480088401C534908805248008817
:100850007128E8DB0020534908605349C1F898012A
:10086000504908310860091D08600120091D086011
:100870000020091D08600120091D086000204A4968
:10088000C1F8B00142480078032835D141480078CA
:10089000012831D100204049088012E048483E4AF2
:1008A0001288815C3E4800F000FE00BF40213C48B9
:1008B00000F02EFD0128F9D137480088401C364948
:1008C0000880354800887128E8DB00203549086039
:1008D0003549C1F898013349083108600120091DE4
:1008E00008600020091D0860091D08600120091D1D
:1008F00008602D49C1F8B00125480078032835D19A
:1009000024480078022831D100202349088012E0D1
:100910002C48214A1288815C214800F0C6FD00BFA6
:1009200040211F4800F0F4FC0128F9D11A48008842
:10093000401C19490880184800887128E8DB00200D
:10094000184908601849C1F898011649083108602B
:10095000091D08600120091D08600020091D0860AC
:10096000091D086001201049C1F8B0010448007851
:1009700004490870044800780449087010BD00005C
:1009800004000020050000200600002007000020D1
:100990000100002002000020180400203303002082
:1009A000003801409481214200802142C20200208F
:1009B000FE00002051020020A4030020E0010020DE
:1009C0008D0000206F0100202DE9F05F8248008833
:1009D00000F4004000287CD07F480088C0F30D0060
:1009E0007E4908807E4840787E4908707C49897934
:1009F000A1F1300000F0A2FF80467B4A7B4B00F063
:100A0000B5FF04460D467649897830396422514352
:100A1000734AD278303A02EB820201EB420270490B
:100A200009793039501800F089FF064622462B46D6
:100A300000F0DCFE824600F0A7FE6D4908606948C0
:100A400000782B2824D100216A4800F0A0FA012068
:100A5000694908700846007868490978884217D0C3
:100A600067496348006801F0F4F902D20120654942
:100A7000087063495E48006801F06CF908D80021ED
:100A80005B48006801F0E5F902D202205D49087078
:100A900000205D49088012E051485B4A1288815C61
:100AA0005A4800F002FD00BF4021584800F030FCD9
:100AB0000128F9D154480088401C53490880524805
:100AC0000088464909888842E6DB002050490880B2
:100AD00013E019E04F484E4A1288815C4B4800F001
:100AE000E4FC00BF4021494800F012FC0128F9D184
:100AF00047480088401C464908804548008802282D
:100B0000E8DB0020344908804348008800F40040B6
:100B100000285ED040480088C0F30D003F4908809F
:100B20003F4840783F4908703D498979A1F130003C
:100B300000F004FF06462C4A2C4B00F017FF044639
:100B40000D4637498978303964225143344AD27886
:100B5000303A02EB820201EB420231490979303925
:100B6000501800F0EBFE804622462B4600F03EFE79
:100B7000824600F009FE2C4908602A4800782B289C
:100B800024D100211B4800F002FA012027490870F7
:100B90000846007826490978884217D01849224823
:100BA000006801F056F902D2012022490870144968
:100BB0001D48006801F0CEF808D800211A480068E6
:100BC00001F047F902D202201A49087000201249A8
:100BD0000880BDE8F09F0000380400201E040020BB
:100BE00020050020240400209A9999999999B93FE9
:100BF0002C04002000080040040000200500002014
:100C00000000C040010000201804002000500040F7
:100C10001C040020260400204004002020040020A2
:100C2000F6060020250400203004002006000020E5
:100C30000700002002000020704710B500F002F805
:100C400010BD00000CB500200190009033480068F2
:100C500040F480303149086000BF3048006800F43B
:100C6000003000900198401C0190009818B901983C
:100C7000B0F5A06FF1D12948006800F4003010B140
:100C80000120009001E0002000900098012843D14D
:100C90002348006840F010002149086008460068B9
:100CA00020F0030008600846006840F00200086079
:100CB0001A48406819494860084640684860084634
:100CC000406840F4806048600846406820F47C102A
:100CD00048600846406840F4E810486008460068EC
:100CE00040F08070086000BF0C48006800F00070A1
:100CF0000028F9D00948406820F0030007494860FF
:100D00000846406840F00200486000BF0348406861
:100D100000F00C000828F9D10CBD000000100240C2
:100D200000200240042808D14FF0E021096941F079
:100D300004014FF0E022116107E04FF0E021096962
:100D400021F004014FF0E02211617047704700006C
:100D500010B51348006840F00100114908600846CA
:100D60004068104908400E494860084600680E492E
:100D700008400B4908600846006820F4802008609D
:100D80000846406820F4FE0048604FF41F00886069
:100D9000FFF753FF4FF000600449086010BD0000EA
:100DA000001002400000FFF8FFFFF6FE08ED00E033
:100DB00010B501213C4800F0D0F800286ED0022088
:100DC0003A4908703A490870084600783949097864
:100DD00088422ED003203849087000240DE037489F
:100DE000015D374800F061FB00BF4021344800F04E
:100DF0008FFA0128F9D1601CC4B2712CEFDB0020FE
:100E0000304908603049C1F898012E49083108601E
:100E1000091D0860091D08600120091D08600020E7
:100E2000091D08602849C1F8B0012148007821490E
:100E300008701E4800782549097888422ED0032082
:100E40002349087000240DE01C48015D1C4800F097
:100E50002CFB00BF40211A4800F05AFA0128F9D1B2
:100E6000601CC4B2712CEFDB0020164908601649E3
:100E7000C1F89801134908310860091D0860091D6F
:100E800008600120091D08600020091D08600E4946
:100E9000C1F8B001054800780C49087001210248EA
:100EA00000F04CF810BD00000008004006000020D3
:100EB0000400002005000020010000201C0000208C
:100EC0000038014094812142008021420700002027
:100ED000020000207FB505460C4601210420FFF7E3
:100EE000E9FAADF80850ADF804400020ADF80A006A
:100EF000ADF8060001A9104800F04CF80122114697
:100F00000D4800F03BF801210B4800F017F81E20B7
:100F10008DF8000000208DF8010003208DF80200FC
:100F200001208DF803006846FFF780FA012102488E
:100F300000F007F87FBD000000080040CA430282AD
:100F4000704721B1028842F00102028004E0028869
:100F50004FF6FE731A400280704730B502460020FB
:100F600000230024158A05EA0103958905EA010496
:100F700013B10CB1012000E0002030BD1AB183890B
:100F80000B43838102E083898B4383817047818493
:100F900070470000002202881D4B98420ED01D4B66
:100FA00098420BD0B0F1804F08D01B4B984205D02F
:100FB0001A4B984202D01A4B984204D14FF68F73C5
:100FC0001A404B881A43174B984207D0164B984249
:100FD00004D04FF6FF431A40CB881A4302808B8817
:100FE00083850B8803850A4B98420BD0094B9842A6
:100FF00008D00E4B984205D00D4B984202D00D4BB5
:10100000984201D10B7A0386012383827047000046
:10101000002C014000340140000400400008004062
:10102000000C00400010004000140040004001404F
:10103000004401400048014010B540F225511D48D0
:1010400000F073F910B31B4800F02AFAC4B21A4832
:10105000008800F40040C8B91748008800F48040B8
:1010600060B10A2C03D000201349088020E0124808
:10107000008840F400401049088019E00D2C06D18A
:101080000D48008840F480400B49088010E00A4871
:101090000088C0F30D0009490C5407480088401C23
:1010A0000549088008460088C72801DD002008801F
:1010B00010BD00000050004040040020F606002053
:1010C00010B540F225511D4800F02FF910B31B4810
:1010D00000F0E6F9C4B21A48008800F40040C8B92C
:1010E0001748008800F4804060B10A2C03D000202B
:1010F0001349088020E01248008840F4004010495D
:10110000088019E00D2C06D10D48008840F480407D
:101110000B49088010E00A480088C0F30D00094917
:101120000C5407480088401C054908800846008880
:10113000C72801DD0020088010BD000000380140F4
:10114000360400205804002010B540F225511D48F7
:1011500000F0EBF810B31B4800F0A2F9C4B21A4833
:10116000008800F40040C8B91748008800F48040A7
:1011700060B10A2C03D000201349088020E01248F7
:10118000008840F400401049088019E00D2C06D179
:101190000D48008840F480400B49088010E00A4860
:1011A0000088C0F30D0009490C5407480088401C12
:1011B0000549088008460088F92801DD00200880DC
:1011C00010BD00000044004038040020200500202D
:1011D00010B540F225511D4800F0A7F810B31B4888
:1011E00000F05EF9C4B21A48008800F40040C8B9A3
:1011F0001748008800F4804060B10A2C03D000201A
:101200001449088020E01248008840F4004010494A
:10121000088019E00D2C06D10D48008840F480406C
:101220000B49088010E00A480088C0F30D000A4905
:101230000C5407480088401C05490880084600886F
:10124000C72801DD0020088010BD000000480040D4
:101250003E040020380400202E06002021B182899F
:1012600042F40052828104E082894DF6FF731A40F5
:101270008281704710B504462048844209D101217B
:101280008803FFF747F900214FF48040FFF742F948
:1012900032E01B48844209D101214804FFF71AF9C2
:1012A00000214FF40030FFF715F925E0154884427E
:1012B00009D101218804FFF70DF900214FF48020A6
:1012C000FFF708F918E01048844209D10121C80449
:1012D000FFF700F900214FF40020FFF7FBF80BE0C7
:1012E0000A48844208D101210805FFF7F3F80021DC
:1012F0004FF48010FFF7EEF810BD000000380140F9
:101300000044004000480040004C004000500040B5
:1013100002460020B1F5007F00D100BF13880B40CA
:101320000BB1012000E00020704770B50246002498
:1013300000230025002040F66A16B14200D100BF0C
:10134000C1F3421501F01F03012606FA03F3012D34
:1013500002D19689334006E0022D02D1168A33402D
:1013600001E0968A33400C12012606FA04F416882E
:10137000344013B10CB1012000E0002070BDF0B585
:101380000346002400260025002040F66A17B942D3
:1013900000D100BF1846C1F3421401F01F06012717
:1013A00007FA06F5012C01D10C3004E0022C01D122
:1013B000103000E014301AB107682F43076002E0D4
:1013C0000768AF430760F0BD2DE9F04786B00546DA
:1013D0000E460024A24600BFA1460027B08900B1F6
:1013E00000BF2F462C8A4CF6FF700440F08804435F
:1013F0002C82AC894EF6F3100440B0883189084342
:10140000718908430443AC81AC8A4FF6FF40044025
:10141000B0890443AC8201A8FFF78CF81F488742CB
:1014200002D1DDF810A001E0DDF80CA0A88900F4DD
:10143000004040B10AEBCA0000EB0A1031684900D5
:10144000B0FBF1F807E00AEBCA0000EB0A103168C4
:101450008900B0FBF1F86420B8FBF0F0040120092A
:10146000642101FB1089A88900F4004040B13220BA
:1014700000EBC900B0FBF1F000F00700044308E006
:10148000322000EB09106421B0FBF1F000F00F00F6
:1014900004432C8106B0BDE8F0870000003801400D
:1014A00001468888C0F308007047C1F308028280B3
:1014B000704700BFFEE7000010B56FF00400FFF7B3
:1014C00031FC0A4800680A49B0FBF1F0094908708C
:1014D0000846007800EB4001C1EBC0104FF6FF71E9
:1014E00001EAC0000449088010BD00000800002087
:1014F00000127A00280400202A0400200146114A24
:1015000012884A434FF0E0235A6100229A611A463A
:10151000126942F001021A6100BF4FF0E022106927
:1015200000F001021AB100F48032002AF5D04FF029
:10153000E022126922F001024FF0E0231A6100223A
:101540009A6170472A040020FFF7B6FF4FF4E0606D
:10155000FEF7A4FF4FF4614000F01AF84FF4165064
:1015600000F066F84FF4165000F0B4F8FEF73EFFB6
:1015700044F24F6141F63F70FFF7ACFC07E0FFF724
:1015800023FAFFF741F84FF4FA70FFF7B7FFF6E7D9
:1015900010B586B00446012144F20400FEF7AAFF0C
:1015A0004FF40070ADF8140003208DF816001820D9
:1015B0008DF8170005A91C48FEF788FE4FF48060DF
:1015C000ADF8140004208DF8170005A91648FEF7A1
:1015D0007DFE25208DF8000000208DF801008DF89B
:1015E000020001208DF803006846FEF71FFF0194FA
:1015F0000020ADF80800ADF80A00ADF80C00ADF819
:1016000010000C20ADF80E0001A90848FFF7DCFE21
:10161000012240F225510548FFF7B1FE01210348A0
:10162000FFF71CFE06B010BD000801400038014065
:1016300010B586B0044601210520FEF75BFF0121AD
:101640004804FEF737FF0420ADF8140003208DF89E
:10165000160018208DF8170005A91C48FEF736FE65
:101660000820ADF8140004208DF8170005A91748CC
:10167000FEF72CFE26208DF8000000208DF80100DA
:1016800001208DF802008DF803006846FEF7CEFEBB
:1016900001940020ADF80800ADF80A00ADF80C0088
:1016A000ADF810000C20ADF80E0001A90848FFF7B6
:1016B0008BFE012240F225510548FFF760FE012113
:1016C0000348FFF7CBFD06B010BD00000008014045
:1016D0000044004010B586B0044601211020FEF7FA
:1016E00009FF01212020FEF705FF01210805FEF773
:1016F000E1FE4FF48050ADF8140003208DF8160081
:1017000018208DF8170005A91C48FEF7DFFD0420FE
:10171000ADF814008DF8170005A91948FEF7D6FD9D
:101720001848FFF7A7FD01940020ADF80800ADF8B8
:101730000A00ADF80C00ADF810000C20ADF80E005A
:1017400035208DF8000000208DF8010001208DF873
:1017500002008DF803006846FEF768FE01A90948FB
:10176000FFF732FE012240F225510648FFF707FE3F
:1017700001210448FFF772FD06B010BD00100140C2
:10178000001401400050004021F00042A2F16052DC
:10179000B2F5801F01F0004328BFD2F17F6C0BD956
:1017A0005FEA001C43EAC20242EB507018BF704768
:1017B00028BF20F001007047B2F5801FBCBF18465B
:1017C00070474FEA410C1CF5001F02D2084600F09A
:1017D0003BBB70B500F074F900000089FFF7F6BF5D
:1017E0004FF00040A0F580007047000010B591EA6E
:1017F000030F48BF83F0004300F1BE81841A71EBF0
:10180000030C05D2121943EB0C03001B61EB0C0116
:10181000DFF824E14FEA1154A4EB135C1EEA430FF6
:1018200018BF9EEA445F73D023EA0E03DCF1200E5A
:1018300021EA045143F4801332D322FA0CFE10EB58
:101840000E0023FA0CFE41EB0E01CCF1200E03FA40
:101850000EFE10EB0E0051F10001B1F5801FCCF12E
:10186000200E32D201EB045112FA0EF2BDE8104004
:1018700058BF7047401C38BF5FEA420218BF70472C
:10188000002814BF20F0010041F100014FEA41039C
:1018900013F5001F38BF7047A1F1C04100F05EB9D9
:1018A000012A43EB0302ACF1200CDCF11F0E32BF26
:1018B0004FF0000E23FA0CF310EB030041EB045140
:1018C000B4EB115FD0D0A1EB045101F580114908B0
:1018D0005FEA300001EB04510ED350F1000038BF35
:1018E00012FA0EFE08D1BDE81040C9E7401C38BF0F
:1018F0005FEA4202CAD1C3E7BDE810404FEA4103A4
:1019000013F5001F38BF7047A1F1C04100F026B9A0
:101910009EEA445F08D011EA5E0FBDE8104004BFA4
:1019200001F0004100207047BDE8104070B500F0A4
:10193000C7F800BF64FBBE3E0000E0FF10F00042AD
:1019400048BF4042B0FA80F310FA03F10AD0C3F165
:101950001D0303F580634FEA415002EB035202EB93
:10196000D12170474FF0000070470000DFF848C1F8
:1019700070B51CEA111E1EBF1CEA13159EEA0C0F5F
:1019800095EA0C0F00F06F8081EA030423EA4C1300
:101990004EEAD47E21EA4C1141F4801143F48013C5
:1019A000AE44A1FB024CA0FB0365AEF17F7E36196D
:1019B00055EB0C05A1FB034C4CF10003A0FB021CF2
:1019C00016EB0C06654153F10003094218BF46F0BF
:1019D000010613F4007F0BD14FEA03314FEA0530C3
:1019E000340341EA155140EA16506FF003020AE051
:1019F0004FEAC3214FEAC520F40241EA555140EABB
:101A000056506FF0020202EB2E4201EB025585EABE
:101A1000CE710AD05FEA440C18BF24F0004450F1A4
:101A2000000041F1000120EAD47040F2FE7C6245E2
:101A300000D270BDA84214BF4FF080444FF0404424
:101A4000002E08BF0024BEF1806FA8BFA1F1C041E5
:101A5000BDE8704080F282804FF0000001F1C0418B
:101A600001F0004170479EEA0C0F0CEA131518BFF5
:101A700095EA0C0F06D04FF0000081EA030E0EF03D
:101A8000004170BD00F01CF88900013E00F007B86D
:101A900000F009B84FEA430C5FEA5C5C08D081EAC9
:101AA000030100F05BB84FEA410C5FEA5C5CF6D1E1
:101AB0004FF00000014970470000FF070000F87F69
:101AC0000EF1020E2EF0030E5EF8046B364205D4C2
:101AD000012A43EB030515F5001F12D8012841EB3D
:101AE000010C1CF5001F0CD80ED14FEAD17C15F566
:101AF000001F0CEB4C0C0CF1020C08BF4CEBD37C20
:101B000004E04FF0080C01E04FEAD37C0CEB4C05ED
:101B100026FA05F606F00706B6F1040C06D20EEB1F
:101B2000860CBDE870404CF0010C6047DFE80CF01B
:101B3000090B02024FF000414FF00000A1F5002117
:101B400070BD19461046012851EB010418BFD4F5A9
:101B5000001484BF002001F0004170BD0808A0F50A
:101B600000114FEA3101704710B591EA030F48BFE9
:101B700083F000433FF542AE841A71EB030C07D2A9
:101B800012198CF0004C43EB0C03001B61EB0C01B1
:101B9000DFF8A4E14FEA1154A4EB135C1EEA430FF3
:101BA00018BF9EEA445F00F0B08023EA6E03524201
:101BB00021EA0451C3EB6E0338BF5B1EDCF1200E3B
:101BC00025D322FA0CFE10EB0E0043FA0CFE41EB7B
:101BD0000E01CCF1200E03FA0EFE10EB0E0051F1B7
:101BE0000001CCF1200E29D412FA0EF201EB0451BF
:101BF000BDE8104058BF7047401C1CBFB2F1004FF9
:101C0000704700280CBF491C20F00100704712EB00
:101C1000020E43EB030218BF4FF0010E4EEA4202E0
:101C2000ACF1200CDCF11E0E54D943FA0CFE10EB83
:101C30000E0051F1FF31CCF11E0ED5D50EF1010E83
:101C400012FA0EFE404141EB010101EB445C5FEAF8
:101C50005C5C10D910EBDE7001EB045138BFBEF1B3
:101C6000004FBDE8104018BF704700280CBF491C4A
:101C700020F00100704730D24FEAD42C11F500114A
:101C800024F400641BD0B1FA81F20B3AA41AA41E0A
:101C9000D2F12003914030FA03F31943904001EB55
:101CA000CC71002C01EB0451BDE81040A8BF704777
:101CB00001F1C0414FF0000001F000417047B0FA5F
:101CC00080F310FA03F100D110BDE41A173C480567
:101CD000C90AE4E701EB045110BD491001EB0451BE
:101CE000BDE810404FEA300002E04FF000017047BD
:101CF0004A0008BF0042F8D0B2F5001F28BF704765
:101D000001F000414FF0000070479EEA445F07D0A9
:101D100011EA5E0FBDE8104004BF002100207047AB
:101D2000BDE8104070B5FFF7CBFE00BF40DFF63EC8
:101D300083F00041104670470000E0FF401058BF9C
:101D4000C0F14040491058BFC1F140418142EFF31A
:101D50000080704750EA010C00F113801CF5000F61
:101D600058BFBCF5000F01D48842704707D710F563
:101D7000000F58BF11F5000F15D4884270478942F3
:101D800070471CF5000F04D5BCF5000FF7D5814254
:101D900070474FF0807C1CEB400F38BF1CEB410FAD
:101DA00001D28142704710B500F008F89224490032
:101DB0004FF000504FF08051FFF7C0BF0EF1020E00
:101DC0002EF0030E5EF8044B244204D44FEA410285
:101DD000B2F17F4F11D84FEA4003B3F17F4F0CD8D7
:101DE0000ED14FEAD07CB2F17F4F0CEB4C0C0CF1D2
:101DF000020C08BF4CEBD17C04E04FF0080C01E072
:101E00004FEAD17C0CEB4C0324FA03F404F00704F2
:101E1000B4F1040C06D20EEB840CBDE810404CF07B
:101E2000010C6047DFE80CF0070802024FF00040A9
:101E3000A0F5800010BD0846420018BFD2F18072A4
:101E400088BF00F0004010BDFF2141EAD050C0051E
:101E5000704751EA000C00F113801CF5000F58BFC9
:101E6000BCF5000F01D48142704707D711F5000F70
:101E700058BF10F5000F15D4814270478942704752
:101E80001CF5000F04D5BCF5000FF7D5884270474C
:101E90004FF0807C1CEB410F38BF1CEB400F01D290
:101EA0008842704780EA010081EA000180EA01006F
:101EB000FFF779BFD41E000800000020580400007E
:101EC0006C0100086C1F000858040020C8090000BD
:101ED000C80100081163030384A24A04180B01021D
:101EE00003040607080955AA0C120162DA5A6004B5
:101EF000E1128012209302012A333F011333011AA9
:101F0000420E127F2A1F2214010A033320082009DF
:101F1000D7A2D2E2B0B2C8AB0B640D0A7108086751
:101F2000F3CFF2C0B4B3B5710B6DD3D27149E20BEC
:101F30006DC8CBE20969710F6BD7F3B3B5D3D2711A
:101F40000F67C8CBD3D2B3B5710F6FC1BDB2E0C0BC
:101F5000B4712BC8CB710111091113C9572C02039D
:0C1F6000040418080607080902040650D3
:0400000508000131BD
:00000001FF
